22:56:43.794531 IP (tos 0x10, ttl 64, id 22314, offset 0, flags [DF], proto TCP (6), length 172)
    SofewareAging2.ssh > 192.168.1.115.b2-runtime: Flags [P.], cksum 0x84cd (incorrect -> 0x5f43), seq 1579107778:1579107910, ack 3519077587, win 555, length 132
	0x0000:  4510 00ac 572a 4000 4006 5ee3 c0a8 016b  E...W*@.@.^....k
	0x0010:  c0a8 0173 0016 089b 5e1f 45c2 d1c0 dcd3  ...s....^.E.....
	0x0020:  5018 022b 84cd 0000 a634 80e3 31ab 65dc  P..+.....4..1.e.
	0x0030:  3940 6920 d36e c5e4 5199 8db6 c163 c474  9@i..n..Q....c.t
	0x0040:  d4fe 65b0 dc13 19cf 409f ea84 c5db 5b58  ..e.....@.....[X
	0x0050:  7be7 bdfa fb6f faa0 bb38 9e9f 3bd9 4792  {....o...8..;.G.
	0x0060:  e5f3 3df0 3e56 ba0e 1495 b7e5 f49e e954  ..=.>V.........T
	0x0070:  9ebd 364a 8e48 538e e053 9c85 d465 fb1c  ..6J.HS..S...e..
	0x0080:  8edd e32b fe36 6c26 51ce e932 4c48 7a99  ...+.6l&Q..2LHz.
	0x0090:  e09a 165e 8d30 2d6f cee5 0da0 a33f 1a5c  ...^.0-o.....?.\
	0x00a0:  05f8 a819 2535 7fae 4701 f6f8            ....%5..G...
22:56:43.795237 IP (tos 0x0, ttl 64, id 28306, offset 0, flags [DF], proto UDP (17), length 72)
    SofewareAging2.50133 > dec3000.xjtu.edu.cn.domain: [bad udp cksum 9db9!] 43181+ PTR? 115.1.168.192.in-addr.arpa. (44)
	0x0000:  4500 0048 6e92 4000 4011 3f76 c0a8 016b  E..Hn.@.@.?v...k
	0x0010:  ca75 0014 c3d5 0035 0034 8ce2 a8ad 0100  .u.....5.4......
	0x0020:  0001 0000 0000 0000 0331 3135 0131 0331  .........115.1.1
	0x0030:  3638 0331 3932 0769 6e2d 6164 6472 0461  68.192.in-addr.a
	0x0040:  7270 6100 000c 0001                      rpa.....
22:56:43.796421 IP (tos 0x0, ttl 60, id 31827, offset 0, flags [none], proto UDP (17), length 107)
    dec3000.xjtu.edu.cn.domain > SofewareAging2.50133: [udp sum ok] 43181 NXDomain* q: PTR? 115.1.168.192.in-addr.arpa. 0/1/0 ns: 168.192.in-addr.arpa. SOA 168.192.in-addr.arpa. . 0 28800 7200 604800 86400 (79)
	0x0000:  4500 006b 7c53 0000 3c11 7592 ca75 0014  E..k|S..<.u..u..
	0x0010:  c0a8 016b 0035 c3d5 0057 44d8 a8ad 8583  ...k.5...WD.....
	0x0020:  0001 0000 0001 0000 0331 3135 0131 0331  .........115.1.1
	0x0030:  3638 0331 3932 0769 6e2d 6164 6472 0461  68.192.in-addr.a
	0x0040:  7270 6100 000c 0001 c012 0006 0001 0001  rpa.............
	0x0050:  5180 0017 c012 0000 0000 0000 0070 8000  Q............p..
	0x0060:  001c 2000 093a 8000 0151 80              .....:...Q.
22:56:43.796818 IP (tos 0x0, ttl 64, id 28308, offset 0, flags [DF], proto UDP (17), length 71)
    SofewareAging2.38181 > dec3000.xjtu.edu.cn.domain: [bad udp cksum e7fc!] 55319+ PTR? 20.0.117.202.in-addr.arpa. (43)
	0x0000:  4500 0047 6e94 4000 4011 3f75 c0a8 016b  E..Gn.@.@.?u...k
	0x0010:  ca75 0014 9525 0035 0033 8ce1 d817 0100  .u...%.5.3......
	0x0020:  0001 0000 0000 0000 0232 3001 3003 3131  .........20.0.11
	0x0030:  3703 3230 3207 696e 2d61 6464 7204 6172  7.202.in-addr.ar
	0x0040:  7061 0000 0c00 01                        pa.....
22:56:43.797991 IP (tos 0x0, ttl 60, id 31828, offset 0, flags [none], proto UDP (17), length 208)
    dec3000.xjtu.edu.cn.domain > SofewareAging2.38181: [udp sum ok] 55319* q: PTR? 20.0.117.202.in-addr.arpa. 1/3/3 20.0.117.202.in-addr.arpa. PTR dec3000.xjtu.edu.cn. ns: 117.202.in-addr.arpa. NS ns2.xjtu.edu.cn., 117.202.in-addr.arpa. NS dns.xanet.edu.cn., 117.202.in-addr.arpa. NS dec3000.xjtu.edu.cn. ar: dns.xanet.edu.cn. A 202.112.11.130, ns2.xjtu.edu.cn. A 202.117.0.21, dec3000.xjtu.edu.cn. A 202.117.0.20 (180)
	0x0000:  4500 00d0 7c54 0000 3c11 752c ca75 0014  E...|T..<.u,.u..
	0x0010:  c0a8 016b 0035 9525 00bc 72ad d817 8580  ...k.5.%..r.....
	0x0020:  0001 0001 0003 0003 0232 3001 3003 3131  .........20.0.11
	0x0030:  3703 3230 3207 696e 2d61 6464 7204 6172  7.202.in-addr.ar
	0x0040:  7061 0000 0c00 01c0 0c00 0c00 0100 0151  pa.............Q
	0x0050:  8000 1507 6465 6333 3030 3004 786a 7475  ....dec3000.xjtu
	0x0060:  0365 6475 0263 6e00 c011 0002 0001 0001  .edu.cn.........
	0x0070:  5180 0006 036e 7332 c03f c011 0002 0001  Q....ns2.?......
	0x0080:  0001 5180 000c 0364 6e73 0578 616e 6574  ..Q....dns.xanet
	0x0090:  c044 c011 0002 0001 0001 5180 0002 c037  .D........Q....7
	0x00a0:  c06a 0001 0001 0000 7b02 0004 ca70 0b82  .j......{....p..
	0x00b0:  c058 0001 0001 0001 5180 0004 ca75 0015  .X......Q....u..
	0x00c0:  c037 0001 0001 0001 5180 0004 ca75 0014  .7......Q....u..
22:56:44.066744 IP (tos 0x0, ttl 64, id 56195, offset 0, flags [DF], proto TCP (6), length 40)
    192.168.1.115.b2-runtime > SofewareAging2.ssh: Flags [.], cksum 0xd40e (correct), seq 1, ack 132, win 64491, length 0
	0x0000:  4500 0028 db83 4000 4006 db1d c0a8 0173  E..(..@.@......s
	0x0010:  c0a8 016b 089b 0016 d1c0 dcd3 5e1f 4646  ...k........^.FF
	0x0020:  5010 fbeb d40e 0000 0000 0000 0000       P.............
22:56:48.461673 ARP, Ethernet (len 6), IPv4 (len 4), Request who-has 192.168.1.1 tell 192.168.1.111, length 28
	0x0000:  0001 0800 0604 0001 5452 0068 6d4f c0a8  ........TR.hmO..
	0x0010:  016f 0000 0000 0000 c0a8 0101            .o..........
22:56:48.461987 IP (tos 0x0, ttl 64, id 32973, offset 0, flags [DF], proto UDP (17), length 70)
    SofewareAging2.59360 > dec3000.xjtu.edu.cn.domain: [bad udp cksum c4a5!] 52150+ PTR? 1.1.168.192.in-addr.arpa. (42)
	0x0000:  4500 0046 80cd 4000 4011 2d3d c0a8 016b  E..F..@.@.-=...k
	0x0010:  ca75 0014 e7e0 0035 0032 8ce0 cbb6 0100  .u.....5.2......
	0x0020:  0001 0000 0000 0000 0131 0131 0331 3638  .........1.1.168
	0x0030:  0331 3932 0769 6e2d 6164 6472 0461 7270  .192.in-addr.arp
	0x0040:  6100 000c 0001                           a.....
22:56:48.462065 ARP, Ethernet (len 6), IPv4 (len 4), Reply 192.168.1.1 is-at 54:e6:fc:62:02:c0 (oui Unknown), length 46
	0x0000:  0001 0800 0604 0002 54e6 fc62 02c0 c0a8  ........T..b....
	0x0010:  0101 5452 0068 6d4f c0a8 016f 2f92 2305  ..TR.hmO...o/.#.
	0x0020:  bec9 b345 418f a330 9975 bd70 efcc       ...EA..0.u.p..
22:56:48.462280 IP (tos 0x0, ttl 64, id 41847, offset 0, flags [DF], proto UDP (17), length 57)
    192.168.1.111.42722 > dec3000.xjtu.edu.cn.domain: [udp sum ok] 42148+ MX? example.com. (29)
	0x0000:  4500 0039 a377 4000 4011 0a9c c0a8 016f  E..9.w@.@......o
	0x0010:  ca75 0014 a6e2 0035 0025 49d9 a4a4 0100  .u.....5.%I.....
	0x0020:  0001 0000 0000 0000 0765 7861 6d70 6c65  .........example
	0x0030:  0363 6f6d 0000 0f00 01                   .com.....
22:56:48.463095 IP (tos 0x0, ttl 60, id 31830, offset 0, flags [none], proto UDP (17), length 105)
    dec3000.xjtu.edu.cn.domain > SofewareAging2.59360: [udp sum ok] 52150 NXDomain* q: PTR? 1.1.168.192.in-addr.arpa. 0/1/0 ns: 168.192.in-addr.arpa. SOA 168.192.in-addr.arpa. . 0 28800 7200 604800 86400 (77)
	0x0000:  4500 0069 7c56 0000 3c11 7591 ca75 0014  E..i|V..<.u..u..
	0x0010:  c0a8 016b 0035 e7e0 0055 3101 cbb6 8583  ...k.5...U1.....
	0x0020:  0001 0000 0001 0000 0131 0131 0331 3638  .........1.1.168
	0x0030:  0331 3932 0769 6e2d 6164 6472 0461 7270  .192.in-addr.arp
	0x0040:  6100 000c 0001 c010 0006 0001 0001 5180  a.............Q.
	0x0050:  0017 c010 0000 0000 0000 0070 8000 001c  ...........p....
	0x0060:  2000 093a 8000 0151 80                   ...:...Q.
22:56:48.463305 IP (tos 0x0, ttl 64, id 32975, offset 0, flags [DF], proto UDP (17), length 72)
    SofewareAging2.33674 > dec3000.xjtu.edu.cn.domain: [bad udp cksum fcc1!] 57501+ PTR? 111.1.168.192.in-addr.arpa. (44)
	0x0000:  4500 0048 80cf 4000 4011 2d39 c0a8 016b  E..H..@.@.-9...k
	0x0010:  ca75 0014 838a 0035 0034 8ce2 e09d 0100  .u.....5.4......
	0x0020:  0001 0000 0000 0000 0331 3131 0131 0331  .........111.1.1
	0x0030:  3638 0331 3932 0769 6e2d 6164 6472 0461  68.192.in-addr.a
	0x0040:  7270 6100 000c 0001                      rpa.....
22:56:48.463428 IP (tos 0x0, ttl 60, id 31831, offset 0, flags [none], proto UDP (17), length 114)
    dec3000.xjtu.edu.cn.domain > 192.168.1.111.42722: [udp sum ok] 42148 q: MX? example.com. 0/1/0 ns: example.com. SOA sns.dns.icann.org. noc.dns.icann.org. 2013013015 7200 3600 1209600 3600 (86)
	0x0000:  4500 0072 7c57 0000 3c11 7583 ca75 0014  E..r|W..<.u..u..
	0x0010:  c0a8 016f 0035 a6e2 005e 6082 a4a4 8180  ...o.5...^`.....
	0x0020:  0001 0000 0001 0000 0765 7861 6d70 6c65  .........example
	0x0030:  0363 6f6d 0000 0f00 01c0 0c00 0600 0100  .com............
	0x0040:  000c de00 2d03 736e 7303 646e 7305 6963  ....-.sns.dns.ic
	0x0050:  616e 6e03 6f72 6700 036e 6f63 c02d 77fc  ann.org..noc.-w.
	0x0060:  2417 0000 1c20 0000 0e10 0012 7500 0000  $...........u...
	0x0070:  0e10                                     ..
22:56:48.463866 IP (tos 0x0, ttl 64, id 41850, offset 0, flags [DF], proto UDP (17), length 57)
    192.168.1.111.48394 > dec3000.xjtu.edu.cn.domain: [udp sum ok] 52189+ A? example.com. (29)
	0x0000:  4500 0039 a37a 4000 4011 0a99 c0a8 016f  E..9.z@.@......o
	0x0010:  ca75 0014 bd0a 0035 0025 1a78 cbdd 0100  .u.....5.%.x....
	0x0020:  0001 0000 0000 0000 0765 7861 6d70 6c65  .........example
	0x0030:  0363 6f6d 0000 0100 01                   .com.....
22:56:48.464585 IP (tos 0x0, ttl 60, id 31832, offset 0, flags [none], proto UDP (17), length 107)
    dec3000.xjtu.edu.cn.domain > SofewareAging2.33674: [udp sum ok] 57501 NXDomain* q: PTR? 111.1.168.192.in-addr.arpa. 0/1/0 ns: 168.192.in-addr.arpa. SOA 168.192.in-addr.arpa. . 0 28800 7200 604800 86400 (79)
	0x0000:  4500 006b 7c58 0000 3c11 758d ca75 0014  E..k|X..<.u..u..
	0x0010:  c0a8 016b 0035 838a 0057 4d37 e09d 8583  ...k.5...WM7....
	0x0020:  0001 0000 0001 0000 0331 3131 0131 0331  .........111.1.1
	0x0030:  3638 0331 3932 0769 6e2d 6164 6472 0461  68.192.in-addr.a
	0x0040:  7270 6100 000c 0001 c012 0006 0001 0001  rpa.............
	0x0050:  5180 0017 c012 0000 0000 0000 0070 8000  Q............p..
	0x0060:  001c 2000 093a 8000 0151 80              .....:...Q.
22:56:48.465009 IP (tos 0x0, ttl 60, id 31833, offset 0, flags [none], proto UDP (17), length 209)
    dec3000.xjtu.edu.cn.domain > 192.168.1.111.48394: [udp sum ok] 52189 q: A? example.com. 1/2/4 example.com. A 192.0.43.10 ns: example.com. NS b.iana-servers.net., example.com. NS a.iana-servers.net. ar: a.iana-servers.net. A 199.43.132.53, a.iana-servers.net. AAAA 2001:500:8c::53, b.iana-servers.net. A 199.43.133.53, b.iana-servers.net. AAAA 2001:500:8d::53 (181)
	0x0000:  4500 00d1 7c59 0000 3c11 7522 ca75 0014  E...|Y..<.u".u..
	0x0010:  c0a8 016f 0035 bd0a 00bd f912 cbdd 8180  ...o.5..........
	0x0020:  0001 0001 0002 0004 0765 7861 6d70 6c65  .........example
	0x0030:  0363 6f6d 0000 0100 01c0 0c00 0100 0100  .com............
	0x0040:  0027 8d00 04c0 002b 0ac0 0c00 0200 0100  .'.....+........
	0x0050:  021e 8f00 1401 620c 6961 6e61 2d73 6572  ......b.iana-ser
	0x0060:  7665 7273 036e 6574 00c0 0c00 0200 0100  vers.net........
	0x0070:  021e 8f00 0401 61c0 3bc0 5900 0100 0100  ......a.;.Y.....
	0x0080:  0002 c000 04c7 2b84 35c0 5900 1c00 0100  ......+.5.Y.....
	0x0090:  0002 c000 1020 0105 0000 8c00 0000 0000  ................
	0x00a0:  0000 0000 53c0 3900 0100 0100 0000 2700  ....S.9.......'.
	0x00b0:  04c7 2b85 35c0 3900 1c00 0100 0000 2800  ..+.5.9.......(.
	0x00c0:  1020 0105 0000 8d00 0000 0000 0000 0000  ................
	0x00d0:  53                                       S
22:56:48.465312 IP (tos 0x0, ttl 64, id 41851, offset 0, flags [DF], proto UDP (17), length 57)
    192.168.1.111.43968 > dec3000.xjtu.edu.cn.domain: [udp sum ok] 32984+ AAAA? example.com. (29)
	0x0000:  4500 0039 a37b 4000 4011 0a98 c0a8 016f  E..9.{@.@......o
	0x0010:  ca75 0014 abc0 0035 0025 5bc7 80d8 0100  .u.....5.%[.....
	0x0020:  0001 0000 0000 0000 0765 7861 6d70 6c65  .........example
	0x0030:  0363 6f6d 0000 1c00 01                   .com.....
22:56:48.466389 IP (tos 0x0, ttl 60, id 31834, offset 0, flags [none], proto UDP (17), length 221)
    dec3000.xjtu.edu.cn.domain > 192.168.1.111.43968: [udp sum ok] 32984 q: AAAA? example.com. 1/2/4 example.com. AAAA 2001:500:88:200::10 ns: example.com. NS a.iana-servers.net., example.com. NS b.iana-servers.net. ar: a.iana-servers.net. A 199.43.132.53, a.iana-servers.net. AAAA 2001:500:8c::53, b.iana-servers.net. A 199.43.133.53, b.iana-servers.net. AAAA 2001:500:8d::53 (193)
	0x0000:  4500 00dd 7c5a 0000 3c11 7515 ca75 0014  E...|Z..<.u..u..
	0x0010:  c0a8 016f 0035 abc0 00c9 1c93 80d8 8180  ...o.5..........
	0x0020:  0001 0001 0002 0004 0765 7861 6d70 6c65  .........example
	0x0030:  0363 6f6d 0000 1c00 01c0 0c00 1c00 0100  .com............
	0x0040:  00a1 b900 1020 0105 0000 8802 0000 0000  ................
	0x0050:  0000 0000 10c0 0c00 0200 0100 021e 8f00  ................
	0x0060:  1401 610c 6961 6e61 2d73 6572 7665 7273  ..a.iana-servers
	0x0070:  036e 6574 00c0 0c00 0200 0100 021e 8f00  .net............
	0x0080:  0401 62c0 47c0 4500 0100 0100 0002 c000  ..b.G.E.........
	0x0090:  04c7 2b84 35c0 4500 1c00 0100 0002 c000  ..+.5.E.........
	0x00a0:  1020 0105 0000 8c00 0000 0000 0000 0000  ................
	0x00b0:  53c0 6500 0100 0100 0000 2700 04c7 2b85  S.e.......'...+.
	0x00c0:  35c0 6500 1c00 0100 0000 2800 1020 0105  5.e.......(.....
	0x00d0:  0000 8d00 0000 0000 0000 0000 53         ............S
22:56:48.466872 IP (tos 0x0, ttl 64, id 41773, offset 0, flags [DF], proto TCP (6), length 60)
    192.168.1.111.59856 > 43-10.any.icann.org.smtp: Flags [S], cksum 0x6439 (correct), seq 1767243856, win 14600, options [mss 1460,sackOK,TS val 110076797 ecr 0,nop,wscale 7], length 0
	0x0000:  4500 003c a32d 4000 4006 ea6c c0a8 016f  E..<.-@.@..l...o
	0x0010:  c000 2b0a e9d0 0019 6956 0050 0000 0000  ..+.....iV.P....
	0x0020:  a002 3908 6439 0000 0204 05b4 0402 080a  ..9.d9..........
	0x0030:  068f a37d 0000 0000 0103 0307            ...}........
22:56:48.467044 IP (tos 0x0, ttl 64, id 32978, offset 0, flags [DF], proto UDP (17), length 70)
    SofewareAging2.44330 > dec3000.xjtu.edu.cn.domain: [bad udp cksum 88c8!] 47069+ PTR? 10.43.0.192.in-addr.arpa. (42)
	0x0000:  4500 0046 80d2 4000 4011 2d38 c0a8 016b  E..F..@.@.-8...k
	0x0010:  ca75 0014 ad2a 0035 0032 8ce0 b7dd 0100  .u...*.5.2......
	0x0020:  0001 0000 0000 0000 0231 3002 3433 0130  .........10.43.0
	0x0030:  0331 3932 0769 6e2d 6164 6472 0461 7270  .192.in-addr.arp
	0x0040:  6100 000c 0001                           a.....
22:56:48.475590 IP (tos 0x0, ttl 64, id 41861, offset 0, flags [DF], proto UDP (17), length 57)
    192.168.1.111.59786 > dec3000.xjtu.edu.cn.domain: [udp sum ok] 38875+ MX? example.com. (29)
	0x0000:  4500 0039 a385 4000 4011 0a8e c0a8 016f  E..9..@.@......o
	0x0010:  ca75 0014 e98a 0035 0025 13fa 97db 0100  .u.....5.%......
	0x0020:  0001 0000 0000 0000 0765 7861 6d70 6c65  .........example
	0x0030:  0363 6f6d 0000 0f00 01                   .com.....
22:56:48.476645 IP (tos 0x0, ttl 60, id 31835, offset 0, flags [none], proto UDP (17), length 114)
    dec3000.xjtu.edu.cn.domain > 192.168.1.111.59786: [udp sum ok] 38875 q: MX? example.com. 0/1/0 ns: example.com. SOA sns.dns.icann.org. noc.dns.icann.org. 2013013015 7200 3600 1209600 3600 (86)
	0x0000:  4500 0072 7c5b 0000 3c11 757f ca75 0014  E..r|[..<.u..u..
	0x0010:  c0a8 016f 0035 e98a 005e 2aa3 97db 8180  ...o.5...^*.....
	0x0020:  0001 0000 0001 0000 0765 7861 6d70 6c65  .........example
	0x0030:  0363 6f6d 0000 0f00 01c0 0c00 0600 0100  .com............
	0x0040:  000c de00 2d03 736e 7303 646e 7305 6963  ....-.sns.dns.ic
	0x0050:  616e 6e03 6f72 6700 036e 6f63 c02d 77fc  ann.org..noc.-w.
	0x0060:  2417 0000 1c20 0000 0e10 0012 7500 0000  $...........u...
	0x0070:  0e10                                     ..
22:56:48.477007 IP (tos 0x0, ttl 64, id 41863, offset 0, flags [DF], proto UDP (17), length 57)
    192.168.1.111.37398 > dec3000.xjtu.edu.cn.domain: [udp sum ok] 12770+ A? example.com. (29)
	0x0000:  4500 0039 a387 4000 4011 0a8c c0a8 016f  E..9..@.@......o
	0x0010:  ca75 0014 9216 0035 0025 df67 31e2 0100  .u.....5.%.g1...
	0x0020:  0001 0000 0000 0000 0765 7861 6d70 6c65  .........example
	0x0030:  0363 6f6d 0000 0100 01                   .com.....
22:56:48.478089 IP (tos 0x0, ttl 60, id 31836, offset 0, flags [none], proto UDP (17), length 209)
    dec3000.xjtu.edu.cn.domain > 192.168.1.111.37398: [udp sum ok] 12770 q: A? example.com. 1/2/4 example.com. A 192.0.43.10 ns: example.com. NS b.iana-servers.net., example.com. NS a.iana-servers.net. ar: a.iana-servers.net. A 199.43.132.53, a.iana-servers.net. AAAA 2001:500:8c::53, b.iana-servers.net. A 199.43.133.53, b.iana-servers.net. AAAA 2001:500:8d::53 (181)
	0x0000:  4500 00d1 7c5c 0000 3c11 751f ca75 0014  E...|\..<.u..u..
	0x0010:  c0a8 016f 0035 9216 00bd be02 31e2 8180  ...o.5......1...
	0x0020:  0001 0001 0002 0004 0765 7861 6d70 6c65  .........example
	0x0030:  0363 6f6d 0000 0100 01c0 0c00 0100 0100  .com............
	0x0040:  0027 8d00 04c0 002b 0ac0 0c00 0200 0100  .'.....+........
	0x0050:  021e 8f00 1401 620c 6961 6e61 2d73 6572  ......b.iana-ser
	0x0060:  7665 7273 036e 6574 00c0 0c00 0200 0100  vers.net........
	0x0070:  021e 8f00 0401 61c0 3bc0 5900 0100 0100  ......a.;.Y.....
	0x0080:  0002 c000 04c7 2b84 35c0 5900 1c00 0100  ......+.5.Y.....
	0x0090:  0002 c000 1020 0105 0000 8c00 0000 0000  ................
	0x00a0:  0000 0000 53c0 3900 0100 0100 0000 2700  ....S.9.......'.
	0x00b0:  04c7 2b85 35c0 3900 1c00 0100 0000 2800  ..+.5.9.......(.
	0x00c0:  1020 0105 0000 8d00 0000 0000 0000 0000  ................
	0x00d0:  53                                       S
22:56:48.478430 IP (tos 0x0, ttl 64, id 41864, offset 0, flags [DF], proto UDP (17), length 57)
    192.168.1.111.48629 > dec3000.xjtu.edu.cn.domain: [udp sum ok] 7949+ AAAA? example.com. (29)
	0x0000:  4500 0039 a388 4000 4011 0a8b c0a8 016f  E..9..@.@......o
	0x0010:  ca75 0014 bdf5 0035 0025 ab5d 1f0d 0100  .u.....5.%.]....
	0x0020:  0001 0000 0000 0000 0765 7861 6d70 6c65  .........example
	0x0030:  0363 6f6d 0000 1c00 01                   .com.....
22:56:48.479731 IP (tos 0x0, ttl 60, id 31837, offset 0, flags [none], proto UDP (17), length 221)
    dec3000.xjtu.edu.cn.domain > 192.168.1.111.48629: [udp sum ok] 7949 q: AAAA? example.com. 1/2/4 example.com. AAAA 2001:500:88:200::10 ns: example.com. NS b.iana-servers.net., example.com. NS a.iana-servers.net. ar: a.iana-servers.net. A 199.43.132.53, a.iana-servers.net. AAAA 2001:500:8c::53, b.iana-servers.net. A 199.43.133.53, b.iana-servers.net. AAAA 2001:500:8d::53 (193)
	0x0000:  4500 00dd 7c5d 0000 3c11 7512 ca75 0014  E...|]..<.u..u..
	0x0010:  c0a8 016f 0035 bdf5 00c9 6c29 1f0d 8180  ...o.5....l)....
	0x0020:  0001 0001 0002 0004 0765 7861 6d70 6c65  .........example
	0x0030:  0363 6f6d 0000 1c00 01c0 0c00 1c00 0100  .com............
	0x0040:  00a1 b900 1020 0105 0000 8802 0000 0000  ................
	0x0050:  0000 0000 10c0 0c00 0200 0100 021e 8f00  ................
	0x0060:  1401 620c 6961 6e61 2d73 6572 7665 7273  ..b.iana-servers
	0x0070:  036e 6574 00c0 0c00 0200 0100 021e 8f00  .net............
	0x0080:  0401 61c0 47c0 6500 0100 0100 0002 c000  ..a.G.e.........
	0x0090:  04c7 2b84 35c0 6500 1c00 0100 0002 c000  ..+.5.e.........
	0x00a0:  1020 0105 0000 8c00 0000 0000 0000 0000  ................
	0x00b0:  53c0 4500 0100 0100 0000 2700 04c7 2b85  S.E.......'...+.
	0x00c0:  35c0 4500 1c00 0100 0000 2800 1020 0105  5.E.......(.....
	0x00d0:  0000 8d00 0000 0000 0000 0000 53         ............S
22:56:48.480172 IP (tos 0x0, ttl 64, id 27474, offset 0, flags [DF], proto TCP (6), length 60)
    192.168.1.111.59857 > 43-10.any.icann.org.smtp: Flags [S], cksum 0x9e75 (correct), seq 1719912664, win 14600, options [mss 1460,sackOK,TS val 110076810 ecr 0,nop,wscale 7], length 0
	0x0000:  4500 003c 6b52 4000 4006 2248 c0a8 016f  E..<kR@.@."H...o
	0x0010:  c000 2b0a e9d1 0019 6683 c8d8 0000 0000  ..+.....f.......
	0x0020:  a002 3908 9e75 0000 0204 05b4 0402 080a  ..9..u..........
	0x0030:  068f a38a 0000 0000 0103 0307            ............
22:56:48.489146 IP (tos 0x0, ttl 64, id 41875, offset 0, flags [DF], proto UDP (17), length 57)
    192.168.1.111.47055 > dec3000.xjtu.edu.cn.domain: [udp sum ok] 30029+ MX? example.com. (29)
	0x0000:  4500 0039 a393 4000 4011 0a80 c0a8 016f  E..9..@.@......o
	0x0010:  ca75 0014 b7cf 0035 0025 6843 754d 0100  .u.....5.%hCuM..
	0x0020:  0001 0000 0000 0000 0765 7861 6d70 6c65  .........example
	0x0030:  0363 6f6d 0000 0f00 01                   .com.....
22:56:48.491159 IP (tos 0x0, ttl 60, id 31838, offset 0, flags [none], proto UDP (17), length 114)
    dec3000.xjtu.edu.cn.domain > 192.168.1.111.47055: [udp sum ok] 30029 q: MX? example.com. 0/1/0 ns: example.com. SOA sns.dns.icann.org. noc.dns.icann.org. 2013013015 7200 3600 1209600 3600 (86)
	0x0000:  4500 0072 7c5e 0000 3c11 757c ca75 0014  E..r|^..<.u|.u..
	0x0010:  c0a8 016f 0035 b7cf 005e 7eec 754d 8180  ...o.5...^~.uM..
	0x0020:  0001 0000 0001 0000 0765 7861 6d70 6c65  .........example
	0x0030:  0363 6f6d 0000 0f00 01c0 0c00 0600 0100  .com............
	0x0040:  000c de00 2d03 736e 7303 646e 7305 6963  ....-.sns.dns.ic
	0x0050:  616e 6e03 6f72 6700 036e 6f63 c02d 77fc  ann.org..noc.-w.
	0x0060:  2417 0000 1c20 0000 0e10 0012 7500 0000  $...........u...
	0x0070:  0e10                                     ..
22:56:48.491628 IP (tos 0x0, ttl 64, id 41877, offset 0, flags [DF], proto UDP (17), length 57)
    192.168.1.111.40048 > dec3000.xjtu.edu.cn.domain: [udp sum ok] 36848+ A? example.com. (29)
	0x0000:  4500 0039 a395 4000 4011 0a7e c0a8 016f  E..9..@.@..~...o
	0x0010:  ca75 0014 9c70 0035 0025 76ff 8ff0 0100  .u...p.5.%v.....
	0x0020:  0001 0000 0000 0000 0765 7861 6d70 6c65  .........example
	0x0030:  0363 6f6d 0000 0100 01                   .com.....
22:56:48.492873 IP (tos 0x0, ttl 60, id 31839, offset 0, flags [none], proto UDP (17), length 209)
    dec3000.xjtu.edu.cn.domain > 192.168.1.111.40048: [udp sum ok] 36848 q: A? example.com. 1/2/4 example.com. A 192.0.43.10 ns: example.com. NS b.iana-servers.net., example.com. NS a.iana-servers.net. ar: a.iana-servers.net. A 199.43.132.53, a.iana-servers.net. AAAA 2001:500:8c::53, b.iana-servers.net. A 199.43.133.53, b.iana-servers.net. AAAA 2001:500:8d::53 (181)
	0x0000:  4500 00d1 7c5f 0000 3c11 751c ca75 0014  E...|_..<.u..u..
	0x0010:  c0a8 016f 0035 9c70 00bd 559a 8ff0 8180  ...o.5.p..U.....
	0x0020:  0001 0001 0002 0004 0765 7861 6d70 6c65  .........example
	0x0030:  0363 6f6d 0000 0100 01c0 0c00 0100 0100  .com............
	0x0040:  0027 8d00 04c0 002b 0ac0 0c00 0200 0100  .'.....+........
	0x0050:  021e 8f00 1401 620c 6961 6e61 2d73 6572  ......b.iana-ser
	0x0060:  7665 7273 036e 6574 00c0 0c00 0200 0100  vers.net........
	0x0070:  021e 8f00 0401 61c0 3bc0 5900 0100 0100  ......a.;.Y.....
	0x0080:  0002 c000 04c7 2b84 35c0 5900 1c00 0100  ......+.5.Y.....
	0x0090:  0002 c000 1020 0105 0000 8c00 0000 0000  ................
	0x00a0:  0000 0000 53c0 3900 0100 0100 0000 2700  ....S.9.......'.
	0x00b0:  04c7 2b85 35c0 3900 1c00 0100 0000 2800  ..+.5.9.......(.
	0x00c0:  1020 0105 0000 8d00 0000 0000 0000 0000  ................
	0x00d0:  53                                       S
22:56:48.493222 IP (tos 0x0, ttl 64, id 41879, offset 0, flags [DF], proto UDP (17), length 57)
    192.168.1.111.41710 > dec3000.xjtu.edu.cn.domain: [udp sum ok] 11866+ AAAA? example.com. (29)
	0x0000:  4500 0039 a397 4000 4011 0a7c c0a8 016f  E..9..@.@..|...o
	0x0010:  ca75 0014 a2ee 0035 0025 b717 2e5a 0100  .u.....5.%...Z..
	0x0020:  0001 0000 0000 0000 0765 7861 6d70 6c65  .........example
	0x0030:  0363 6f6d 0000 1c00 01                   .com.....
22:56:48.494803 IP (tos 0x0, ttl 60, id 31840, offset 0, flags [none], proto UDP (17), length 221)
    dec3000.xjtu.edu.cn.domain > 192.168.1.111.41710: [udp sum ok] 11866 q: AAAA? example.com. 1/2/4 example.com. AAAA 2001:500:88:200::10 ns: example.com. NS a.iana-servers.net., example.com. NS b.iana-servers.net. ar: a.iana-servers.net. A 199.43.132.53, a.iana-servers.net. AAAA 2001:500:8c::53, b.iana-servers.net. A 199.43.133.53, b.iana-servers.net. AAAA 2001:500:8d::53 (193)
	0x0000:  4500 00dd 7c60 0000 3c11 750f ca75 0014  E...|`..<.u..u..
	0x0010:  c0a8 016f 0035 a2ee 00c9 77e3 2e5a 8180  ...o.5....w..Z..
	0x0020:  0001 0001 0002 0004 0765 7861 6d70 6c65  .........example
	0x0030:  0363 6f6d 0000 1c00 01c0 0c00 1c00 0100  .com............
	0x0040:  00a1 b900 1020 0105 0000 8802 0000 0000  ................
	0x0050:  0000 0000 10c0 0c00 0200 0100 021e 8f00  ................
	0x0060:  1401 610c 6961 6e61 2d73 6572 7665 7273  ..a.iana-servers
	0x0070:  036e 6574 00c0 0c00 0200 0100 021e 8f00  .net............
	0x0080:  0401 62c0 47c0 4500 0100 0100 0002 c000  ..b.G.E.........
	0x0090:  04c7 2b84 35c0 4500 1c00 0100 0002 c000  ..+.5.E.........
	0x00a0:  1020 0105 0000 8c00 0000 0000 0000 0000  ................
	0x00b0:  53c0 6500 0100 0100 0000 2700 04c7 2b85  S.e.......'...+.
	0x00c0:  35c0 6500 1c00 0100 0000 2800 1020 0105  5.e.......(.....
	0x00d0:  0000 8d00 0000 0000 0000 0000 53         ............S
22:56:48.495311 IP (tos 0x0, ttl 64, id 55375, offset 0, flags [DF], proto TCP (6), length 60)
    192.168.1.111.59858 > 43-10.any.icann.org.smtp: Flags [S], cksum 0x36bf (correct), seq 455900118, win 14600, options [mss 1460,sackOK,TS val 110076825 ecr 0,nop,wscale 7], length 0
	0x0000:  4500 003c d84f 4000 4006 b54a c0a8 016f  E..<.O@.@..J...o
	0x0010:  c000 2b0a e9d2 0019 1b2c 7bd6 0000 0000  ..+......,{.....
	0x0020:  a002 3908 36bf 0000 0204 05b4 0402 080a  ..9.6...........
	0x0030:  068f a399 0000 0000 0103 0307            ............
22:56:48.502219 IP (tos 0x0, ttl 64, id 41888, offset 0, flags [DF], proto UDP (17), length 57)
    192.168.1.111.59667 > dec3000.xjtu.edu.cn.domain: [udp sum ok] 35265+ MX? example.com. (29)
	0x0000:  4500 0039 a3a0 4000 4011 0a73 c0a8 016f  E..9..@.@..s...o
	0x0010:  ca75 0014 e913 0035 0025 228b 89c1 0100  .u.....5.%".....
	0x0020:  0001 0000 0000 0000 0765 7861 6d70 6c65  .........example
	0x0030:  0363 6f6d 0000 0f00 01                   .com.....
22:56:48.503415 IP (tos 0x0, ttl 60, id 31841, offset 0, flags [none], proto UDP (17), length 114)
    dec3000.xjtu.edu.cn.domain > 192.168.1.111.59667: [udp sum ok] 35265 q: MX? example.com. 0/1/0 ns: example.com. SOA sns.dns.icann.org. noc.dns.icann.org. 2013013015 7200 3600 1209600 3600 (86)
	0x0000:  4500 0072 7c61 0000 3c11 7579 ca75 0014  E..r|a..<.uy.u..
	0x0010:  c0a8 016f 0035 e913 005e 3934 89c1 8180  ...o.5...^94....
	0x0020:  0001 0000 0001 0000 0765 7861 6d70 6c65  .........example
	0x0030:  0363 6f6d 0000 0f00 01c0 0c00 0600 0100  .com............
	0x0040:  000c de00 2d03 736e 7303 646e 7305 6963  ....-.sns.dns.ic
	0x0050:  616e 6e03 6f72 6700 036e 6f63 c02d 77fc  ann.org..noc.-w.
	0x0060:  2417 0000 1c20 0000 0e10 0012 7500 0000  $...........u...
	0x0070:  0e10                                     ..
22:56:48.503777 IP (tos 0x0, ttl 64, id 41890, offset 0, flags [DF], proto UDP (17), length 57)
    192.168.1.111.55384 > dec3000.xjtu.edu.cn.domain: [udp sum ok] 42778+ A? example.com. (29)
	0x0000:  4500 0039 a3a2 4000 4011 0a71 c0a8 016f  E..9..@.@..q...o
	0x0010:  ca75 0014 d858 0035 0025 23ed a71a 0100  .u...X.5.%#.....
	0x0020:  0001 0000 0000 0000 0765 7861 6d70 6c65  .........example
	0x0030:  0363 6f6d 0000 0100 01                   .com.....
22:56:48.504919 IP (tos 0x0, ttl 60, id 31842, offset 0, flags [none], proto UDP (17), length 209)
    dec3000.xjtu.edu.cn.domain > 192.168.1.111.55384: [udp sum ok] 42778 q: A? example.com. 1/2/4 example.com. A 192.0.43.10 ns: example.com. NS a.iana-servers.net., example.com. NS b.iana-servers.net. ar: a.iana-servers.net. A 199.43.132.53, a.iana-servers.net. AAAA 2001:500:8c::53, b.iana-servers.net. A 199.43.133.53, b.iana-servers.net. AAAA 2001:500:8d::53 (181)
	0x0000:  4500 00d1 7c62 0000 3c11 7519 ca75 0014  E...|b..<.u..u..
	0x0010:  c0a8 016f 0035 d858 00bd 0288 a71a 8180  ...o.5.X........
	0x0020:  0001 0001 0002 0004 0765 7861 6d70 6c65  .........example
	0x0030:  0363 6f6d 0000 0100 01c0 0c00 0100 0100  .com............
	0x0040:  0027 8d00 04c0 002b 0ac0 0c00 0200 0100  .'.....+........
	0x0050:  021e 8f00 1401 610c 6961 6e61 2d73 6572  ......a.iana-ser
	0x0060:  7665 7273 036e 6574 00c0 0c00 0200 0100  vers.net........
	0x0070:  021e 8f00 0401 62c0 3bc0 3900 0100 0100  ......b.;.9.....
	0x0080:  0002 c000 04c7 2b84 35c0 3900 1c00 0100  ......+.5.9.....
	0x0090:  0002 c000 1020 0105 0000 8c00 0000 0000  ................
	0x00a0:  0000 0000 53c0 5900 0100 0100 0000 2700  ....S.Y.......'.
	0x00b0:  04c7 2b85 35c0 5900 1c00 0100 0000 2800  ..+.5.Y.......(.
	0x00c0:  1020 0105 0000 8d00 0000 0000 0000 0000  ................
	0x00d0:  53                                       S
22:56:48.505250 IP (tos 0x0, ttl 64, id 41891, offset 0, flags [DF], proto UDP (17), length 57)
    192.168.1.111.35608 > dec3000.xjtu.edu.cn.domain: [udp sum ok] 38469+ AAAA? example.com. (29)
	0x0000:  4500 0039 a3a3 4000 4011 0a70 c0a8 016f  E..9..@.@..p...o
	0x0010:  ca75 0014 8b18 0035 0025 6702 9645 0100  .u.....5.%g..E..
	0x0020:  0001 0000 0000 0000 0765 7861 6d70 6c65  .........example
	0x0030:  0363 6f6d 0000 1c00 01                   .com.....
22:56:48.506302 IP (tos 0x0, ttl 60, id 31843, offset 0, flags [none], proto UDP (17), length 221)
    dec3000.xjtu.edu.cn.domain > 192.168.1.111.35608: [udp sum ok] 38469 q: AAAA? example.com. 1/2/4 example.com. AAAA 2001:500:88:200::10 ns: example.com. NS b.iana-servers.net., example.com. NS a.iana-servers.net. ar: a.iana-servers.net. A 199.43.132.53, a.iana-servers.net. AAAA 2001:500:8c::53, b.iana-servers.net. A 199.43.133.53, b.iana-servers.net. AAAA 2001:500:8d::53 (193)
	0x0000:  4500 00dd 7c63 0000 3c11 750c ca75 0014  E...|c..<.u..u..
	0x0010:  c0a8 016f 0035 8b18 00c9 27ce 9645 8180  ...o.5....'..E..
	0x0020:  0001 0001 0002 0004 0765 7861 6d70 6c65  .........example
	0x0030:  0363 6f6d 0000 1c00 01c0 0c00 1c00 0100  .com............
	0x0040:  00a1 b900 1020 0105 0000 8802 0000 0000  ................
	0x0050:  0000 0000 10c0 0c00 0200 0100 021e 8f00  ................
	0x0060:  1401 620c 6961 6e61 2d73 6572 7665 7273  ..b.iana-servers
	0x0070:  036e 6574 00c0 0c00 0200 0100 021e 8f00  .net............
	0x0080:  0401 61c0 47c0 6500 0100 0100 0002 c000  ..a.G.e.........
	0x0090:  04c7 2b84 35c0 6500 1c00 0100 0002 c000  ..+.5.e.........
	0x00a0:  1020 0105 0000 8c00 0000 0000 0000 0000  ................
	0x00b0:  53c0 4500 0100 0100 0000 2700 04c7 2b85  S.E.......'...+.
	0x00c0:  35c0 4500 1c00 0100 0000 2800 1020 0105  5.E.......(.....
	0x00d0:  0000 8d00 0000 0000 0000 0000 53         ............S
22:56:48.506872 IP (tos 0x0, ttl 64, id 15801, offset 0, flags [DF], proto TCP (6), length 60)
    192.168.1.111.59859 > 43-10.any.icann.org.smtp: Flags [S], cksum 0x0466 (correct), seq 724737564, win 14600, options [mss 1460,sackOK,TS val 110076837 ecr 0,nop,wscale 7], length 0
	0x0000:  4500 003c 3db9 4000 4006 4fe1 c0a8 016f  E..<=.@.@.O....o
	0x0010:  c000 2b0a e9d3 0019 2b32 9e1c 0000 0000  ..+.....+2......
	0x0020:  a002 3908 0466 0000 0204 05b4 0402 080a  ..9..f..........
	0x0030:  068f a3a5 0000 0000 0103 0307            ............
22:56:48.510621 IP (tos 0x0, ttl 64, id 41896, offset 0, flags [DF], proto UDP (17), length 57)
    192.168.1.111.34799 > dec3000.xjtu.edu.cn.domain: [udp sum ok] 24966+ MX? example.com. (29)
	0x0000:  4500 0039 a3a8 4000 4011 0a6b c0a8 016f  E..9..@.@..k...o
	0x0010:  ca75 0014 87ef 0035 0025 abea 6186 0100  .u.....5.%..a...
	0x0020:  0001 0000 0000 0000 0765 7861 6d70 6c65  .........example
	0x0030:  0363 6f6d 0000 0f00 01                   .com.....
22:56:48.511607 IP (tos 0x0, ttl 60, id 31844, offset 0, flags [none], proto UDP (17), length 114)
    dec3000.xjtu.edu.cn.domain > 192.168.1.111.34799: [udp sum ok] 24966 q: MX? example.com. 0/1/0 ns: example.com. SOA sns.dns.icann.org. noc.dns.icann.org. 2013013015 7200 3600 1209600 3600 (86)
	0x0000:  4500 0072 7c64 0000 3c11 7576 ca75 0014  E..r|d..<.uv.u..
	0x0010:  c0a8 016f 0035 87ef 005e c293 6186 8180  ...o.5...^..a...
	0x0020:  0001 0000 0001 0000 0765 7861 6d70 6c65  .........example
	0x0030:  0363 6f6d 0000 0f00 01c0 0c00 0600 0100  .com............
	0x0040:  000c de00 2d03 736e 7303 646e 7305 6963  ....-.sns.dns.ic
	0x0050:  616e 6e03 6f72 6700 036e 6f63 c02d 77fc  ann.org..noc.-w.
	0x0060:  2417 0000 1c20 0000 0e10 0012 7500 0000  $...........u...
	0x0070:  0e10                                     ..
22:56:48.512076 IP (tos 0x0, ttl 64, id 41898, offset 0, flags [DF], proto UDP (17), length 57)
    192.168.1.111.47366 > dec3000.xjtu.edu.cn.domain: [udp sum ok] 15675+ A? example.com. (29)
	0x0000:  4500 0039 a3aa 4000 4011 0a69 c0a8 016f  E..9..@.@..i...o
	0x0010:  ca75 0014 b906 0035 0025 ad1e 3d3b 0100  .u.....5.%..=;..
	0x0020:  0001 0000 0000 0000 0765 7861 6d70 6c65  .........example
	0x0030:  0363 6f6d 0000 0100 01                   .com.....
22:56:48.513112 IP (tos 0x0, ttl 60, id 31845, offset 0, flags [none], proto UDP (17), length 209)
    dec3000.xjtu.edu.cn.domain > 192.168.1.111.47366: [udp sum ok] 15675 q: A? example.com. 1/2/4 example.com. A 192.0.43.10 ns: example.com. NS a.iana-servers.net., example.com. NS b.iana-servers.net. ar: a.iana-servers.net. A 199.43.132.53, a.iana-servers.net. AAAA 2001:500:8c::53, b.iana-servers.net. A 199.43.133.53, b.iana-servers.net. AAAA 2001:500:8d::53 (181)
	0x0000:  4500 00d1 7c65 0000 3c11 7516 ca75 0014  E...|e..<.u..u..
	0x0010:  c0a8 016f 0035 b906 00bd 8bb9 3d3b 8180  ...o.5......=;..
	0x0020:  0001 0001 0002 0004 0765 7861 6d70 6c65  .........example
	0x0030:  0363 6f6d 0000 0100 01c0 0c00 0100 0100  .com............
	0x0040:  0027 8d00 04c0 002b 0ac0 0c00 0200 0100  .'.....+........
	0x0050:  021e 8f00 1401 610c 6961 6e61 2d73 6572  ......a.iana-ser
	0x0060:  7665 7273 036e 6574 00c0 0c00 0200 0100  vers.net........
	0x0070:  021e 8f00 0401 62c0 3bc0 3900 0100 0100  ......b.;.9.....
	0x0080:  0002 c000 04c7 2b84 35c0 3900 1c00 0100  ......+.5.9.....
	0x0090:  0002 c000 1020 0105 0000 8c00 0000 0000  ................
	0x00a0:  0000 0000 53c0 5900 0100 0100 0000 2700  ....S.Y.......'.
	0x00b0:  04c7 2b85 35c0 5900 1c00 0100 0000 2800  ..+.5.Y.......(.
	0x00c0:  1020 0105 0000 8d00 0000 0000 0000 0000  ................
	0x00d0:  53                                       S
22:56:48.513488 IP (tos 0x0, ttl 64, id 41899, offset 0, flags [DF], proto UDP (17), length 57)
    192.168.1.111.45380 > dec3000.xjtu.edu.cn.domain: [udp sum ok] 60603+ AAAA? example.com. (29)
	0x0000:  4500 0039 a3ab 4000 4011 0a68 c0a8 016f  E..9..@.@..h...o
	0x0010:  ca75 0014 b144 0035 0025 ea5f ecbb 0100  .u...D.5.%._....
	0x0020:  0001 0000 0000 0000 0765 7861 6d70 6c65  .........example
	0x0030:  0363 6f6d 0000 1c00 01                   .com.....
22:56:48.514544 IP (tos 0x0, ttl 60, id 31846, offset 0, flags [none], proto UDP (17), length 221)
    dec3000.xjtu.edu.cn.domain > 192.168.1.111.45380: [udp sum ok] 60603 q: AAAA? example.com. 1/2/4 example.com. AAAA 2001:500:88:200::10 ns: example.com. NS b.iana-servers.net., example.com. NS a.iana-servers.net. ar: a.iana-servers.net. A 199.43.132.53, a.iana-servers.net. AAAA 2001:500:8c::53, b.iana-servers.net. A 199.43.133.53, b.iana-servers.net. AAAA 2001:500:8d::53 (193)
	0x0000:  4500 00dd 7c66 0000 3c11 7509 ca75 0014  E...|f..<.u..u..
	0x0010:  c0a8 016f 0035 b144 00c9 ab2b ecbb 8180  ...o.5.D...+....
	0x0020:  0001 0001 0002 0004 0765 7861 6d70 6c65  .........example
	0x0030:  0363 6f6d 0000 1c00 01c0 0c00 1c00 0100  .com............
	0x0040:  00a1 b900 1020 0105 0000 8802 0000 0000  ................
	0x0050:  0000 0000 10c0 0c00 0200 0100 021e 8f00  ................
	0x0060:  1401 620c 6961 6e61 2d73 6572 7665 7273  ..b.iana-servers
	0x0070:  036e 6574 00c0 0c00 0200 0100 021e 8f00  .net............
	0x0080:  0401 61c0 47c0 6500 0100 0100 0002 c000  ..a.G.e.........
	0x0090:  04c7 2b84 35c0 6500 1c00 0100 0002 c000  ..+.5.e.........
	0x00a0:  1020 0105 0000 8c00 0000 0000 0000 0000  ................
	0x00b0:  53c0 4500 0100 0100 0000 2700 04c7 2b85  S.E.......'...+.
	0x00c0:  35c0 4500 1c00 0100 0000 2800 1020 0105  5.E.......(.....
	0x00d0:  0000 8d00 0000 0000 0000 0000 53         ............S
22:56:48.515105 IP (tos 0x0, ttl 64, id 5847, offset 0, flags [DF], proto TCP (6), length 60)
    192.168.1.111.59860 > 43-10.any.icann.org.smtp: Flags [S], cksum 0x0723 (correct), seq 286176634, win 14600, options [mss 1460,sackOK,TS val 110076845 ecr 0,nop,wscale 7], length 0
	0x0000:  4500 003c 16d7 4000 4006 76c3 c0a8 016f  E..<..@.@.v....o
	0x0010:  c000 2b0a e9d4 0019 110e b57a 0000 0000  ..+........z....
	0x0020:  a002 3908 0723 0000 0204 05b4 0402 080a  ..9..#..........
	0x0030:  068f a3ad 0000 0000 0103 0307            ............
22:56:49.012850 IP (tos 0x0, ttl 60, id 31847, offset 0, flags [none], proto UDP (17), length 360)
    dec3000.xjtu.edu.cn.domain > SofewareAging2.44330: [udp sum ok] 47069 q: PTR? 10.43.0.192.in-addr.arpa. 1/4/8 10.43.0.192.in-addr.arpa. PTR 43-10.any.icann.org. ns: 43.0.192.in-addr.arpa. NS c.iana-servers.net., 43.0.192.in-addr.arpa. NS ns.icann.org., 43.0.192.in-addr.arpa. NS b.iana-servers.net., 43.0.192.in-addr.arpa. NS a.iana-servers.net. ar: a.iana-servers.net. A 199.43.132.53, a.iana-servers.net. AAAA 2001:500:8c::53, b.iana-servers.net. A 199.43.133.53, b.iana-servers.net. AAAA 2001:500:8d::53, c.iana-servers.net. A 199.43.134.53, c.iana-servers.net. AAAA 2001:500:8e::53, ns.icann.org. A 199.4.138.53, ns.icann.org. AAAA 2001:500:89::53 (332)
	0x0000:  4500 0168 7c67 0000 3c11 7481 ca75 0014  E..h|g..<.t..u..
	0x0010:  c0a8 016b 0035 ad2a 0154 a753 b7dd 8180  ...k.5.*.T.S....
	0x0020:  0001 0001 0004 0008 0231 3002 3433 0130  .........10.43.0
	0x0030:  0331 3932 0769 6e2d 6164 6472 0461 7270  .192.in-addr.arp
	0x0040:  6100 000c 0001 c00c 000c 0001 0000 5460  a.............T`
	0x0050:  0015 0534 332d 3130 0361 6e79 0569 6361  ...43-10.any.ica
	0x0060:  6e6e 036f 7267 00c0 0f00 0200 0100 0054  nn.org.........T
	0x0070:  6000 1401 630c 6961 6e61 2d73 6572 7665  `...c.iana-serve
	0x0080:  7273 036e 6574 00c0 0f00 0200 0100 0054  rs.net.........T
	0x0090:  6000 0502 6e73 c040 c00f 0002 0001 0000  `...ns.@........
	0x00a0:  5460 0004 0162 c059 c00f 0002 0001 0000  T`...b.Y........
	0x00b0:  5460 0004 0161 c059 c098 0001 0001 0000  T`...a.Y........
	0x00c0:  02c0 0004 c72b 8435 c098 001c 0001 0000  .....+.5........
	0x00d0:  02c0 0010 2001 0500 008c 0000 0000 0000  ................
	0x00e0:  0000 0053 c088 0001 0001 0000 0027 0004  ...S.........'..
	0x00f0:  c72b 8535 c088 001c 0001 0000 0028 0010  .+.5.........(..
	0x0100:  2001 0500 008d 0000 0000 0000 0000 0053  ...............S
	0x0110:  c057 0001 0001 0000 054b 0004 c72b 8635  .W.......K...+.5
	0x0120:  c057 001c 0001 0000 054b 0010 2001 0500  .W.......K......
	0x0130:  008e 0000 0000 0000 0000 0053 c077 0001  ...........S.w..
	0x0140:  0001 0000 08c9 0004 c704 8a35 c077 001c  ...........5.w..
	0x0150:  0001 0000 08ca 0010 2001 0500 0089 0000  ................
	0x0160:  0000 0000 0000 0053                      .......S
22:56:51.466724 IP (tos 0x0, ttl 64, id 41774, offset 0, flags [DF], proto TCP (6), length 60)
    192.168.1.111.59856 > 43-10.any.icann.org.smtp: Flags [S], cksum 0x5881 (correct), seq 1767243856, win 14600, options [mss 1460,sackOK,TS val 110079797 ecr 0,nop,wscale 7], length 0
	0x0000:  4500 003c a32e 4000 4006 ea6b c0a8 016f  E..<..@.@..k...o
	0x0010:  c000 2b0a e9d0 0019 6956 0050 0000 0000  ..+.....iV.P....
	0x0020:  a002 3908 5881 0000 0204 05b4 0402 080a  ..9.X...........
	0x0030:  068f af35 0000 0000 0103 0307            ...5........
22:56:51.479727 IP (tos 0x0, ttl 64, id 27475, offset 0, flags [DF], proto TCP (6), length 60)
    192.168.1.111.59857 > 43-10.any.icann.org.smtp: Flags [S], cksum 0x92bd (correct), seq 1719912664, win 14600, options [mss 1460,sackOK,TS val 110079810 ecr 0,nop,wscale 7], length 0
	0x0000:  4500 003c 6b53 4000 4006 2247 c0a8 016f  E..<kS@.@."G...o
	0x0010:  c000 2b0a e9d1 0019 6683 c8d8 0000 0000  ..+.....f.......
	0x0020:  a002 3908 92bd 0000 0204 05b4 0402 080a  ..9.............
	0x0030:  068f af42 0000 0000 0103 0307            ...B........
22:56:51.494708 IP (tos 0x0, ttl 64, id 55376, offset 0, flags [DF], proto TCP (6), length 60)
    192.168.1.111.59858 > 43-10.any.icann.org.smtp: Flags [S], cksum 0x2b07 (correct), seq 455900118, win 14600, options [mss 1460,sackOK,TS val 110079825 ecr 0,nop,wscale 7], length 0
	0x0000:  4500 003c d850 4000 4006 b549 c0a8 016f  E..<.P@.@..I...o
	0x0010:  c000 2b0a e9d2 0019 1b2c 7bd6 0000 0000  ..+......,{.....
	0x0020:  a002 3908 2b07 0000 0204 05b4 0402 080a  ..9.+...........
	0x0030:  068f af51 0000 0000 0103 0307            ...Q........
22:56:51.506709 IP (tos 0x0, ttl 64, id 15802, offset 0, flags [DF], proto TCP (6), length 60)
    192.168.1.111.59859 > 43-10.any.icann.org.smtp: Flags [S], cksum 0xf8ad (correct), seq 724737564, win 14600, options [mss 1460,sackOK,TS val 110079837 ecr 0,nop,wscale 7], length 0
	0x0000:  4500 003c 3dba 4000 4006 4fe0 c0a8 016f  E..<=.@.@.O....o
	0x0010:  c000 2b0a e9d3 0019 2b32 9e1c 0000 0000  ..+.....+2......
	0x0020:  a002 3908 f8ad 0000 0204 05b4 0402 080a  ..9.............
	0x0030:  068f af5d 0000 0000 0103 0307            ...]........
22:56:51.514727 IP (tos 0x0, ttl 64, id 5848, offset 0, flags [DF], proto TCP (6), length 60)
    192.168.1.111.59860 > 43-10.any.icann.org.smtp: Flags [S], cksum 0xfb6a (correct), seq 286176634, win 14600, options [mss 1460,sackOK,TS val 110079845 ecr 0,nop,wscale 7], length 0
	0x0000:  4500 003c 16d8 4000 4006 76c2 c0a8 016f  E..<..@.@.v....o
	0x0010:  c000 2b0a e9d4 0019 110e b57a 0000 0000  ..+........z....
	0x0020:  a002 3908 fb6a 0000 0204 05b4 0402 080a  ..9..j..........
	0x0030:  068f af65 0000 0000 0103 0307            ...e........
22:56:52.016379 IP (tos 0xc0, ttl 1, id 0, offset 0, flags [DF], proto IGMP (2), length 32, options (RA))
    192.168.1.109 > 224.0.0.251: igmp v2 report 224.0.0.251
	0x0000:  46c0 0020 0000 4000 0102 4107 c0a8 016d  F.....@...A....m
	0x0010:  e000 00fb 9404 0000 1600 0904 e000 00fb  ................
22:56:52.016644 IP (tos 0x0, ttl 64, id 36528, offset 0, flags [DF], proto UDP (17), length 70)
    SofewareAging2.58345 > dec3000.xjtu.edu.cn.domain: [bad udp cksum 6cce!] 44810+ PTR? 251.0.0.224.in-addr.arpa. (42)
	0x0000:  4500 0046 8eb0 4000 4011 1f5a c0a8 016b  E..F..@.@..Z...k
	0x0010:  ca75 0014 e3e9 0035 0032 8ce0 af0a 0100  .u.....5.2......
	0x0020:  0001 0000 0000 0000 0332 3531 0130 0130  .........251.0.0
	0x0030:  0332 3234 0769 6e2d 6164 6472 0461 7270  .224.in-addr.arp
	0x0040:  6100 000c 0001                           a.....
22:56:52.169790 IP (tos 0x0, ttl 60, id 31848, offset 0, flags [none], proto UDP (17), length 127)
    dec3000.xjtu.edu.cn.domain > SofewareAging2.58345: [udp sum ok] 44810 NXDomain q: PTR? 251.0.0.224.in-addr.arpa. 0/1/0 ns: 224.in-addr.arpa. SOA sns.dns.icann.org. noc.dns.icann.org. 2012122334 7200 3600 604800 3600 (99)
	0x0000:  4500 007f 7c68 0000 3c11 7569 ca75 0014  E...|h..<.ui.u..
	0x0010:  c0a8 016b 0035 e3e9 006b 3886 af0a 8183  ...k.5...k8.....
	0x0020:  0001 0000 0001 0000 0332 3531 0130 0130  .........251.0.0
	0x0030:  0332 3234 0769 6e2d 6164 6472 0461 7270  .224.in-addr.arp
	0x0040:  6100 000c 0001 c014 0006 0001 0000 0e10  a...............
	0x0050:  002d 0373 6e73 0364 6e73 0569 6361 6e6e  .-.sns.dns.icann
	0x0060:  036f 7267 0003 6e6f 63c0 3a77 ee8c de00  .org..noc.:w....
	0x0070:  001c 2000 000e 1000 093a 8000 000e 10    .........:.....
22:56:52.169952 IP (tos 0x0, ttl 64, id 36681, offset 0, flags [DF], proto UDP (17), length 72)
    SofewareAging2.32879 > dec3000.xjtu.edu.cn.domain: [bad udp cksum ce66!] 16351+ PTR? 109.1.168.192.in-addr.arpa. (44)
	0x0000:  4500 0048 8f49 4000 4011 1ebf c0a8 016b  E..H.I@.@......k
	0x0010:  ca75 0014 806f 0035 0034 8ce2 3fdf 0100  .u...o.5.4..?...
	0x0020:  0001 0000 0000 0000 0331 3039 0131 0331  .........109.1.1
	0x0030:  3638 0331 3932 0769 6e2d 6164 6472 0461  68.192.in-addr.a
	0x0040:  7270 6100 000c 0001                      rpa.....
22:56:52.171018 IP (tos 0x0, ttl 60, id 31849, offset 0, flags [none], proto UDP (17), length 107)
    dec3000.xjtu.edu.cn.domain > SofewareAging2.32879: [udp sum ok] 16351 NXDomain* q: PTR? 109.1.168.192.in-addr.arpa. 0/1/0 ns: 168.192.in-addr.arpa. SOA 168.192.in-addr.arpa. . 0 28800 7200 604800 86400 (79)
	0x0000:  4500 006b 7c69 0000 3c11 757c ca75 0014  E..k|i..<.u|.u..
	0x0010:  c0a8 016b 0035 806f 0057 f208 3fdf 8583  ...k.5.o.W..?...
	0x0020:  0001 0000 0001 0000 0331 3039 0131 0331  .........109.1.1
	0x0030:  3638 0331 3932 0769 6e2d 6164 6472 0461  68.192.in-addr.a
	0x0040:  7270 6100 000c 0001 c012 0006 0001 0001  rpa.............
	0x0050:  5180 0017 c012 0000 0000 0000 0070 8000  Q............p..
	0x0060:  001c 2000 093a 8000 0151 80              .....:...Q.
22:56:53.661441 IP (tos 0x0, ttl 64, id 57773, offset 0, flags [DF], proto TCP (6), length 92)
    192.168.1.115.b2-runtime > SofewareAging2.ssh: Flags [P.], cksum 0xc58f (correct), seq 1:53, ack 132, win 64491, length 52
	0x0000:  4500 005c e1ad 4000 4006 d4bf c0a8 0173  E..\..@.@......s
	0x0010:  c0a8 016b 089b 0016 d1c0 dcd3 5e1f 4646  ...k........^.FF
	0x0020:  5018 fbeb c58f 0000 efe2 f437 0863 f999  P..........7.c..
	0x0030:  43f0 522d 4b49 60d9 055c 7f8b 7a19 7639  C.R-KI`..\..z.v9
	0x0040:  1119 bf15 eb4d 1f82 cd47 8620 680f d446  .....M...G..h..F
	0x0050:  8872 96a3 4103 63e0 ef45 52b3            .r..A.c..ER.

